S105E000544A7C
S113E03C7EE03F0F8E03FFBDE394BDE06C7F001ABE
S113E04C7F001BBDE227BDE18D961A260ABDE100B7
S113E05C7C000C960F26ECBDE227BDE3377EE04630
S113E06C7F0019BDE0BE840326034F20028601C63F
S113E07C01D702D619D703DE02A7007C0019961922
S113E08C814026DF8602CE011BA700CE011CA7000F
S113E09CCE0123A700CE0124A7008601970A970B73
S113E0ACCE01096F007F000C7F000E7F0010BDE0D5
S113E0BCD8399609840197177400087600097D00F5
S113E0CC172706960888B497089609397F000F7F9E
S113E0DC000DC60086019702D703DE02A60081025A
S113E0EC26057C000F2007810126037C000D5CC1F2
S113E0FC4026E139C60086019702D703DE02A6004A
S113E10C8102263B17840797121744444497117DC8
S113E11C0011270737C008BDE17A33961181072710
S113E12C0737CB08BDE17A337D00122706375ABD79
S113E13CE17A33961281072706375CBDE17A335CAA
S113E14CC14026B2C60086019702D703DE02A600A0
S113E15C810226098603A7007C000E200881042670
S113E16C048602A7005CC14026DCBDE0D8398601D8
S113E17C9702D703DE02A600810126048604A700B9
S113E18C39BDE4A51684DF815126037EE222C12029
S113E19C277F8150277B814E26097F001C86FF97A1
S113E1AC1D2025815326097F001C8601971D2018EC
S113E1BC814526098601971C7F001D200B8157265B
S113E1CCC086FF971C7F001D960B9B1D8108243A6B
S113E1DC9713960A9B1C8108243097149613971155
S113E1EC96149712BDE423A6008102271D810327F0
S113E1FC19810126067A000D7C00104FA700961396
S113E20C970B9614970A7F001B398601971B7EE1A6
S113E21C8D8602971B398601971A39BDE4938600C3
S113E22CC619BDE44CCEE507BDE4828602C604BD26
S113E23CE44CCEE66CBDE4827F001196118B03C6D0
S113E24C02BDE44C96118B31BDE4727F0012862022
S113E25CBDE472960B9111260D960A91122607862F
S113E26C40BDE472200BBDE423A600BDE296BDE4E0
S113E27C727C00129612810826D47C0011961181AE
S113E28C0826B8BDE2AEBDE30939810126038659DF
S113E29C3981022603862A39810326038678398636
S113E2AC2E398603C628BDE44CCEE67CBDE48296AA
S113E2BC0CBDE4338604C628BDE44CCEE685BDE42F
S113E2CC82960DBDE4338605C628BDE44CCEE68E9D
S113E2DCBDE482960EBDE4338606C628BDE44CCE5E
S113E2ECE697BDE482960FBDE4338607C628BDE4E9
S113E2FC4CCEE6A0BDE4829610BDE43339860BC641
S113E30C02BDE44CCEE6A9BDE482860CC602BDE493
S113E31C4C961B81022606CEE6CDBDE482860EC643
S113E32C02BDE44CCEE6E3BDE482398610C602BDE0
S113E33CE44C961A2608CEE708BDE4822006CEE704
S113E34C21BDE4828611C602BDE44CCEE739BDE49E
S113E35C82960DBDE4338612C602BDE44C960D8143
S113E36C1E2505CEE747200C810F2505CEE76B2033
S113E37C03CEE795BDE4828614C602BDE44CCEE719
S113E38CB8BDE482BDE4A539BDE4938601C61CBDC9
S113E39CE44CCEE4F3BDE4828604C604BDE44CCE66
S113E3ACE52FBDE4828606C604BDE44CCEE552BD21
S113E3BCE4828607C604BDE44CCEE57DBDE48286CA
S113E3CC09C604BDE44CCEE5A6BDE482860AC604A7
S113E3DCBDE44CCEE5D3BDE482860CC604BDE44C4E
S113E3ECCEE604BDE482860EC604BDE44CCEE62B18
S113E3FCBDE4828611C604BDE44CCEE655BDE48270
S113E40CCEACE1DF087C000926037C0008BDE4E007
S113E41C4D27F2BDE4A53996114848489B12970341
S113E42C86019702DE0239C600810A2505800A5C42
S113E43C20F736178B30BDE472328B30BDE4723961
S113E44CD717CE8000DF004D270FD601CB50D70154
S113E45CD600C900D7004A20EED601DB17D701D667
S113E46C00C900D700399718B7700001DE00961860
S113E47CA70008DF0039DF06DE06A600270808DF40
S113E48C06BDE47220F239CE80008620B7700001FC
S113E49CA700088C878026F2395FF77800B67800DD
S113E4AC2B075CC15826F320F0D71558B678022AEE
S113E4BC015CCEEA1ADF04DB05D7059604890097C4
S113E4CC04DE04A6009716D615F77800B678002B50
S113E4DCF89616395FF77800B678002B075CC158AC
S113E4EC26F34F3986FF392A20202042204C20491C
S113E4FC2047204820542020202A0042204C204928
S113E50C2047204820542020203A3A2020204D45F2
S113E51C52494449414E2047524F572D4445434B91
S113E52C20340041524B2D53484950204D455249FB
S113E53C4449414E20202D2D202047524F572D4425
S113E54C45434B203400412053504F52452D424CEF
S113E55C49474854204953204C4F4F534520494E6A
S113E56C205448452043524F502054524159532E65
S113E57C004556455259204359434C452049542093
S113E58C43524545505320544F20544845204E4542
S113E59C58542043524F50532E0050494C4F542042
S113E5AC44524F4E4520422D372E20204D4F564578
S113E5BC204F4E544F2041205452415920544F2047
S113E5CC53434F52434800495420544F2042415224
S113E5DC45204445434B202D2D2041204C494E458C
S113E5EC2054484520424C494748542043414E54FA
S113E5FC2043524F53532E005350454E4420412038
S113E60C4645572043524F505320544F20534156A4
S113E61C452054484520484152564553542E0059E0
S113E62C3D43524F5020202A3D424C4947485420E8
S113E63C20783D4445414420202E3D4445434B2005
S113E64C20403D44524F4E450050524553532041B7
S113E65C4E59204B455920544F20424547494E00B2
S113E66C3120322033203420352036203720380016
S113E67C4359434C453A20200043524F50533A20BF
S113E68C20004C4F53543A20202000424C49474818
S113E69C543A200053434F5243483A200047524FB8
S113E6AC572D4445434B203420203A3A2020434FE5
S113E6BC4E5441494E4D454E5420414354495645C0
S113E6CC0044524F4E4520484F4C445320504F5316
S113E6DC4954494F4E2E004D4F5645204E2F452F31
S113E6EC532F572020205350433D57414954202049
S113E6FC20513D41424F5254203F20002A2A2A20C7
S113E70C424C4947485420434F4E5441494E45448A
S113E71C202A2A2A002A2A2A204D495353494F4E8B
S113E72C2041424F52544544202A2A2A0043524F36
S113E73C50532053415645443A20004841525645C3
S113E74C53542053454355524544202D2D205745B1
S113E75C4C4C20464C4F574E2C20422D372E0050FB
S113E76C41525449414C2048415256455354202D52
S113E77C2D20544845204445434B2057494C4C20AC
S113E78C5245434F5645522E0047524F572D444540
S113E79C434B204C4F5354202D2D20524154494F60
S113E7AC4E53204F4E2048414C462E005052455358
S113E7BC5320414E59204B455920544F205245501B
S109E7CC4C414E542E00E6
S104E7FFFF16
S903E0001C
