S113E8000F8E01FF4FCE7F00A70EA70A8665A700D3
S113E8108644A701865DA702B67E008402270A8685
S113E82020A7048614A70520088640A7048635A7D8
S113E830058617A703A7064FA70DA70CA70ECE782A
S113E840006F016F03867FA700861DA702863CA781
S113E85001A7038601A700A7029F448658974FBDCE
S113E860E8657EE990CE8000DF4C7F004E8620A7CD
S113E87000088C878026F839CE8050DF54CE800083
S113E880DF56CE0730DF58DE54A60008DF54DE56CC
S113E890A70008DF56DE5809DF5826EBCE873086FE
S113E8A020A700088C878026F8CE8730DF4C7F00B5
S113E8B04E39DF5A3716C10D2721C10A2722C10854
S113E8C02720F7700001DE4CE70008DF4C7C004E87
S113E8D0964E81502620BDE8FA201BBDE8FA20168A
S113E8E02014964E27107A004EDE4C09DF4C862009
S113E8F0B7700001A70033DE5A39964E408B509B07
S113E9004D974D964C8900974C7F004EDE4C8C877A
S113E910802503BDE87839DF5C37964FB77800B6B9
S113E92078002B09260286584A974F20EDF6780284
S113E930D7505849CEEB2DDF529B53975324037C79
S113E9400052DE52A6004D2B20D650C501270A8165
S113E950612D06817A2E028020D650C540270A8177
S113E960402D06817F2702841F9751964FB7780068
S113E970B678002BF69651847F975136BDE8B232B3
S113E98033DE5C397EE8B27EE9177EE8B27EE917B1
S113E990CEEBEDBDEAE77F00487F00497F004B8E58
S113E9A001FFBDEAEE8624BDE98ABDE98DCEEC12F5
S113E9B0080808E600270D1126F6EE01AD00BDEAB1
S113E9C04E7EE99CC6367EEA5296482708DE46E625
S113E9D000A700D74839BDE9C939BDEA38BDE9D631
S113E9E0DE426E009E44BDE9D63B7F0048BDEA3856
S113E9F0DF46863F974839BDEA337EEA60BDEA3890
S113EA00BDEAEE860DBDE98ACE0042BDEAD8DE42FB
S113EA10BDEACEDF42BDE98D810A27E7812F2701B8
S113EA2039BDEB0DBDEA4E09A700A10027D2C635BA
S113EA307EEA52BDEA38DF40BDE98D810D270C81A5
S113EA402C27037EEA52BDEB2020037EE99CD64BA3
S113EA50270DCEEBE1BDEAE717BDE98A7EE99C39D3
S113EA60BDEAEECE0040BDEAD8C610DE40BDEADB0A
S113EA70099C42260139085A26F3DF4020E2BDEA08
S113EA80EECE0044BDEAD8DE4408BDEADBBDEADBD5
S113EA90BDEADBBDEAD87EEAD830BDEAB2EE059C19
S113EAA0462704C637D74BBDE9C99F44BDEA7E7EDD
S113EAB0E99C6D0026026A056A06397EE8B2444480
S113EAC04444840F8B30813923F18B0720EDA60059
S113EAD0BDEABEA6000820EABDEACEBDEACE862085
S113EAE07EE984BDE98408A600810426F639CEEBCC
S113EAF0EB7EEAE78633974B39BDE987803025F40E
S113EB0081092308800725EC810F22E83937BDEA03
S113EB10F94848484816BDEAF91B33361B16323902
S113EB20BDEB0D9742BDEB0D9743DE4239D1D1D7F2
S113EB30D7C5C5D2D2D4F4D9F932221B1B7F7F9E0C
S113EB409FD0F0B4B6929331217151989833233405
S113EB502435253626372738283929305F2D3D5E60
S113EB607E5C7C09C98787888889892D2D775765BC
S113EB7045725274547959755569496F4F70505B99
S113EB807B5D7D0D0D8484858586860909614173CD
S113EB905364446646674768486A4A6B4B6C4C3B0F
S113EBA02B3A2A40600A0A82828383818190917A77
S113EBB05A78586343765662426E4E6D4D2C3C2E05
S113EBC03E2F3F20201FCA30302E2E0D0D9D941E47
S113EBD01E0A0A0B0B08080C0CE3002C2C00000086
S113EBE000204552524F523A2020040D040D525435
S113EBF02F36383030202041444D2D3331202052DF
S113EC004F4D2D4D4F4E2E202056455220312E3043
S113EC100D0D0D0D0442E9EA44E9F745E9DA47E947
S10EEC20E44DE9FD52EA7E1BE8000011
S903E80014
